{
  "contractName": "BabyContract",
  "abi": [
    {
      "constant": true,
      "inputs": [
        {
          "name": "",
          "type": "uint256"
        }
      ],
      "name": "babyToOwner",
      "outputs": [
        {
          "name": "",
          "type": "address"
        }
      ],
      "payable": false,
      "stateMutability": "view",
      "type": "function"
    },
    {
      "constant": true,
      "inputs": [
        {
          "name": "",
          "type": "string"
        }
      ],
      "name": "imageToBaby",
      "outputs": [
        {
          "name": "",
          "type": "uint256"
        }
      ],
      "payable": false,
      "stateMutability": "view",
      "type": "function"
    },
    {
      "constant": true,
      "inputs": [
        {
          "name": "",
          "type": "uint256"
        }
      ],
      "name": "babies",
      "outputs": [
        {
          "name": "imagePath",
          "type": "string"
        },
        {
          "name": "etcSpfeatr",
          "type": "string"
        },
        {
          "name": "phoneNumber",
          "type": "string"
        },
        {
          "name": "age",
          "type": "uint8"
        }
      ],
      "payable": false,
      "stateMutability": "view",
      "type": "function"
    },
    {
      "anonymous": false,
      "inputs": [
        {
          "indexed": false,
          "name": "babyId",
          "type": "uint256"
        },
        {
          "indexed": false,
          "name": "imagePath",
          "type": "string"
        },
        {
          "indexed": false,
          "name": "etcSpfeatr",
          "type": "string"
        },
        {
          "indexed": false,
          "name": "phoneNumber",
          "type": "string"
        },
        {
          "indexed": false,
          "name": "age",
          "type": "uint256"
        }
      ],
      "name": "NewBaby",
      "type": "event"
    },
    {
      "constant": false,
      "inputs": [
        {
          "name": "_imagePath",
          "type": "string"
        },
        {
          "name": "_etcSpfeatr",
          "type": "string"
        },
        {
          "name": "_phoneNumber",
          "type": "string"
        },
        {
          "name": "_age",
          "type": "uint256"
        }
      ],
      "name": "addBaby",
      "outputs": [],
      "payable": false,
      "stateMutability": "nonpayable",
      "type": "function"
    },
    {
      "constant": true,
      "inputs": [],
      "name": "getBabiesCount",
      "outputs": [
        {
          "name": "count",
          "type": "uint256"
        }
      ],
      "payable": false,
      "stateMutability": "view",
      "type": "function"
    },
    {
      "constant": true,
      "inputs": [
        {
          "name": "_id",
          "type": "uint256"
        }
      ],
      "name": "getBaby",
      "outputs": [
        {
          "name": "imagePath",
          "type": "string"
        },
        {
          "name": "etcSpfeatr",
          "type": "string"
        },
        {
          "name": "phoneNumber",
          "type": "string"
        },
        {
          "name": "age",
          "type": "uint256"
        }
      ],
      "payable": false,
      "stateMutability": "view",
      "type": "function"
    },
    {
      "constant": true,
      "inputs": [
        {
          "name": "_imagePath",
          "type": "string"
        }
      ],
      "name": "getBabyByImagePath",
      "outputs": [
        {
          "name": "imagePath",
          "type": "string"
        },
        {
          "name": "etcSpfeatr",
          "type": "string"
        },
        {
          "name": "phoneNumber",
          "type": "string"
        },
        {
          "name": "age",
          "type": "uint256"
        }
      ],
      "payable": false,
      "stateMutability": "view",
      "type": "function"
    }
  ],
  "bytecode": "0x608060405234801561001057600080fd5b506114b5806100206000396000f3fe608060405234801561001057600080fd5b506004361061007d5760003560e01c806359105e0f1161005b57806359105e0f146103015780636cc4f9c2146103d0578063d9c490ab14610556578063dc29db78146106e25761007d565b80632beb7ce0146100825780633da145d8146100a057806349c57ae414610293575b600080fd5b61008a6108f5565b6040518082815260200191505060405180910390f35b610291600480360360808110156100b657600080fd5b81019080803590602001906401000000008111156100d357600080fd5b8201836020820111156100e557600080fd5b8035906020019184600183028401116401000000008311171561010757600080fd5b91908080601f016020809104026020016040519081016040528093929190818152602001838380828437600081840152601f19601f8201169050808301925050505050505091929192908035906020019064010000000081111561016a57600080fd5b82018360208201111561017c57600080fd5b8035906020019184600183028401116401000000008311171561019e57600080fd5b91908080601f016020809104026020016040519081016040528093929190818152602001838380828437600081840152601f19601f8201169050808301925050505050505091929192908035906020019064010000000081111561020157600080fd5b82018360208201111561021357600080fd5b8035906020019184600183028401116401000000008311171561023557600080fd5b91908080601f016020809104026020016040519081016040528093929190818152602001838380828437600081840152601f19601f82011690508083019250505050505050919291929080359060200190929190505050610901565b005b6102bf600480360360208110156102a957600080fd5b8101908080359060200190929190505050610c30565b604051808273ffffffffffffffffffffffffffffffffffffffff1673ffffffffffffffffffffffffffffffffffffffff16815260200191505060405180910390f35b6103ba6004803603602081101561031757600080fd5b810190808035906020019064010000000081111561033457600080fd5b82018360208201111561034657600080fd5b8035906020019184600183028401116401000000008311171561036857600080fd5b91908080601f016020809104026020016040519081016040528093929190818152602001838380828437600081840152601f19601f820116905080830192505050505050509192919290505050610c63565b6040518082815260200191505060405180910390f35b6103fc600480360360208110156103e657600080fd5b8101908080359060200190929190505050610c91565b60405180806020018060200180602001858152602001848103845288818151815260200191508051906020019080838360005b8381101561044a57808201518184015260208101905061042f565b50505050905090810190601f1680156104775780820380516001836020036101000a031916815260200191505b50848103835287818151815260200191508051906020019080838360005b838110156104b0578082015181840152602081019050610495565b50505050905090810190601f1680156104dd5780820380516001836020036101000a031916815260200191505b50848103825286818151815260200191508051906020019080838360005b838110156105165780820151818401526020810190506104fb565b50505050905090810190601f1680156105435780820380516001836020036101000a031916815260200191505b5097505050505050505060405180910390f35b6105826004803603602081101561056c57600080fd5b8101908080359060200190929190505050610efa565b604051808060200180602001806020018560ff1660ff168152602001848103845288818151815260200191508051906020019080838360005b838110156105d65780820151818401526020810190506105bb565b50505050905090810190601f1680156106035780820380516001836020036101000a031916815260200191505b50848103835287818151815260200191508051906020019080838360005b8381101561063c578082015181840152602081019050610621565b50505050905090810190601f1680156106695780820380516001836020036101000a031916815260200191505b50848103825286818151815260200191508051906020019080838360005b838110156106a2578082015181840152602081019050610687565b50505050905090810190601f1680156106cf5780820380516001836020036101000a031916815260200191505b5097505050505050505060405180910390f35b61079b600480360360208110156106f857600080fd5b810190808035906020019064010000000081111561071557600080fd5b82018360208201111561072757600080fd5b8035906020019184600183028401116401000000008311171561074957600080fd5b91908080601f016020809104026020016040519081016040528093929190818152602001838380828437600081840152601f19601f82011690508083019250505050505050919291929050505061110c565b60405180806020018060200180602001858152602001848103845288818151815260200191508051906020019080838360005b838110156107e95780820151818401526020810190506107ce565b50505050905090810190601f1680156108165780820380516001836020036101000a031916815260200191505b50848103835287818151815260200191508051906020019080838360005b8381101561084f578082015181840152602081019050610834565b50505050905090810190601f16801561087c5780820380516001836020036101000a031916815260200191505b50848103825286818151815260200191508051906020019080838360005b838110156108b557808201518184015260208101905061089a565b50505050905090810190601f1680156108e25780820380516001836020036101000a031916815260200191505b5097505050505050505060405180910390f35b60008080549050905090565b600060ff828161090d57fe5b06905060006001600060405180608001604052808981526020018881526020018781526020018560ff168152509080600181540180825580915050906001820390600052602060002090600402016000909192909190915060008201518160000190805190602001906109819291906113e4565b50602082015181600101908051906020019061099e9291906113e4565b5060408201518160020190805190602001906109bb9291906113e4565b5060608201518160030160006101000a81548160ff021916908360ff1602179055505050039050336001600083815260200190815260200160002060006101000a81548173ffffffffffffffffffffffffffffffffffffffff021916908373ffffffffffffffffffffffffffffffffffffffff160217905550806002876040518082805190602001908083835b60208310610a6b5780518252602082019150602081019050602083039250610a48565b6001836020036101000a0380198251168184511680821785525050505050509050019150509081526020016040518091039020819055507f43cd9ac8c9b2933098cf598b98bcc892aaa9ef90a53854ca31d26694b2b80276818787878760405180868152602001806020018060200180602001858152602001848103845288818151815260200191508051906020019080838360005b83811015610b1c578082015181840152602081019050610b01565b50505050905090810190601f168015610b495780820380516001836020036101000a031916815260200191505b50848103835287818151815260200191508051906020019080838360005b83811015610b82578082015181840152602081019050610b67565b50505050905090810190601f168015610baf5780820380516001836020036101000a031916815260200191505b50848103825286818151815260200191508051906020019080838360005b83811015610be8578082015181840152602081019050610bcd565b50505050905090810190601f168015610c155780820380516001836020036101000a031916815260200191505b509850505050505050505060405180910390a1505050505050565b60016020528060005260406000206000915054906101000a900473ffffffffffffffffffffffffffffffffffffffff1681565b6002818051602081018201805184825260208301602085012081835280955050505050506000915090505481565b60608060606000808581548110610ca457fe5b90600052602060002090600402016000018054600181600116156101000203166002900480601f016020809104026020016040519081016040528092919081815260200182805460018160011615610100020316600290048015610d495780601f10610d1e57610100808354040283529160200191610d49565b820191906000526020600020905b815481529060010190602001808311610d2c57829003601f168201915b5050505050935060008581548110610d5d57fe5b90600052602060002090600402016001018054600181600116156101000203166002900480601f016020809104026020016040519081016040528092919081815260200182805460018160011615610100020316600290048015610e025780601f10610dd757610100808354040283529160200191610e02565b820191906000526020600020905b815481529060010190602001808311610de557829003601f168201915b5050505050925060008581548110610e1657fe5b90600052602060002090600402016002018054600181600116156101000203166002900480601f016020809104026020016040519081016040528092919081815260200182805460018160011615610100020316600290048015610ebb5780601f10610e9057610100808354040283529160200191610ebb565b820191906000526020600020905b815481529060010190602001808311610e9e57829003601f168201915b5050505050915060008581548110610ecf57fe5b906000526020600020906004020160030160009054906101000a900460ff1660ff1690509193509193565b60008181548110610f0757fe5b9060005260206000209060040201600091509050806000018054600181600116156101000203166002900480601f016020809104026020016040519081016040528092919081815260200182805460018160011615610100020316600290048015610fb35780601f10610f8857610100808354040283529160200191610fb3565b820191906000526020600020905b815481529060010190602001808311610f9657829003601f168201915b505050505090806001018054600181600116156101000203166002900480601f0160208091040260200160405190810160405280929190818152602001828054600181600116156101000203166002900480156110515780601f1061102657610100808354040283529160200191611051565b820191906000526020600020905b81548152906001019060200180831161103457829003601f168201915b505050505090806002018054600181600116156101000203166002900480601f0160208091040260200160405190810160405280929190818152602001828054600181600116156101000203166002900480156110ef5780601f106110c4576101008083540402835291602001916110ef565b820191906000526020600020905b8154815290600101906020018083116110d257829003601f168201915b5050505050908060030160009054906101000a900460ff16905084565b60608060606000806002866040518082805190602001908083835b6020831061114a5780518252602082019150602081019050602083039250611127565b6001836020036101000a03801982511681845116808217855250505050505090500191505090815260200160405180910390205490506000818154811061118d57fe5b90600052602060002090600402016000018054600181600116156101000203166002900480601f0160208091040260200160405190810160405280929190818152602001828054600181600116156101000203166002900480156112325780601f1061120757610100808354040283529160200191611232565b820191906000526020600020905b81548152906001019060200180831161121557829003601f168201915b505050505094506000818154811061124657fe5b90600052602060002090600402016001018054600181600116156101000203166002900480601f0160208091040260200160405190810160405280929190818152602001828054600181600116156101000203166002900480156112eb5780601f106112c0576101008083540402835291602001916112eb565b820191906000526020600020905b8154815290600101906020018083116112ce57829003601f168201915b50505050509350600081815481106112ff57fe5b90600052602060002090600402016002018054600181600116156101000203166002900480601f0160208091040260200160405190810160405280929190818152602001828054600181600116156101000203166002900480156113a45780601f10611379576101008083540402835291602001916113a4565b820191906000526020600020905b81548152906001019060200180831161138757829003601f168201915b50505050509250600081815481106113b857fe5b906000526020600020906004020160030160009054906101000a900460ff1660ff169150509193509193565b828054600181600116156101000203166002900490600052602060002090601f016020900481019282601f1061142557805160ff1916838001178555611453565b82800160010185558215611453579182015b82811115611452578251825591602001919060010190611437565b5b5090506114609190611464565b5090565b61148691905b8082111561148257600081600090555060010161146a565b5090565b9056fea165627a7a72305820891ff7395586cebd194d6a1003fa3ad4092d696ca77b1e0d6ea30edee7ff21510029",
  "source": "pragma solidity ^0.5.0;\r\n\r\ncontract BabyContract {\r\n\r\n    event NewBaby(uint babyId, string imagePath, string etcSpfeatr, string phoneNumber, uint age);\r\n\r\n    struct Baby {   // 사진경로, 특이사항, 연락처, 나이\r\n        string imagePath;\r\n        string etcSpfeatr;\r\n        string phoneNumber;\r\n        uint8 age;\r\n    }\r\n\r\n    Baby[] public babies;\r\n\r\n    mapping (uint => address) public babyToOwner;\r\n    mapping (string => uint) public imageToBaby;\r\n\r\n    function addBaby(string memory _imagePath, string memory _etcSpfeatr, string memory _phoneNumber, uint _age) public {\r\n        uint8 _age8 = uint8(_age % (2**8-1));\r\n        uint id = babies.push(Baby(_imagePath, _etcSpfeatr, _phoneNumber, _age8)) - 1;\r\n        babyToOwner[id] = msg.sender;\r\n        imageToBaby[_imagePath] = id;\r\n        emit NewBaby(id, _imagePath, _etcSpfeatr, _phoneNumber, _age);\r\n    }\r\n\r\n    function getBabiesCount() public view returns (uint count) {\r\n        return babies.length;\r\n    }\r\n\r\n    function getBaby(uint _id) public view returns (\r\n        string memory imagePath, string memory etcSpfeatr, string memory phoneNumber, uint age) {\r\n        imagePath = babies[_id].imagePath;\r\n        etcSpfeatr = babies[_id].etcSpfeatr;\r\n        phoneNumber = babies[_id].phoneNumber;\r\n        age = babies[_id].age;\r\n    }\r\n\r\n    function getBabyByImagePath(string memory _imagePath) public view returns (\r\n        string memory imagePath, string memory etcSpfeatr, string memory phoneNumber, uint age) {\r\n        uint _id = imageToBaby[_imagePath];\r\n        imagePath = babies[_id].imagePath;\r\n        etcSpfeatr = babies[_id].etcSpfeatr;\r\n        phoneNumber = babies[_id].phoneNumber;\r\n        age = babies[_id].age;\r\n    }\r\n}",
  "sourcePath": "D:/dev_tcl/mynetwork/contracts/BabyContract.sol",
  "compiler": {
    "name": "solc",
    "version": "0.5.8+commit.23d335f2.Emscripten.clang"
  },
  "schemaVersion": "3.0.11",
  "updatedAt": "2019-08-11T13:43:35.991Z",
  "devdoc": {
    "methods": {}
  },
  "userdoc": {
    "methods": {}
  }
}